{
  "contractName": "KlaytnDIDRegistry",
  "abi": [
    {
      "anonymous": false,
      "inputs": [
        {
          "indexed": true,
          "internalType": "address",
          "name": "identity",
          "type": "address"
        },
        {
          "indexed": false,
          "internalType": "bytes32",
          "name": "name",
          "type": "bytes32"
        },
        {
          "indexed": false,
          "internalType": "bytes",
          "name": "value",
          "type": "bytes"
        },
        {
          "indexed": false,
          "internalType": "uint256",
          "name": "updatedAt",
          "type": "uint256"
        }
      ],
      "name": "DIDAttributeChanged",
      "type": "event"
    },
    {
      "inputs": [
        {
          "internalType": "address",
          "name": "",
          "type": "address"
        }
      ],
      "name": "deactivated",
      "outputs": [
        {
          "internalType": "bool",
          "name": "",
          "type": "bool"
        }
      ],
      "stateMutability": "view",
      "type": "function",
      "constant": true
    },
    {
      "inputs": [
        {
          "internalType": "address",
          "name": "identity",
          "type": "address"
        }
      ],
      "name": "getDIDDocument",
      "outputs": [
        {
          "internalType": "string",
          "name": "",
          "type": "string"
        }
      ],
      "stateMutability": "view",
      "type": "function",
      "constant": true
    },
    {
      "inputs": [
        {
          "internalType": "address",
          "name": "identity",
          "type": "address"
        },
        {
          "internalType": "string",
          "name": "didDocument",
          "type": "string"
        }
      ],
      "name": "setDIDDocument",
      "outputs": [],
      "stateMutability": "nonpayable",
      "type": "function"
    },
    {
      "inputs": [
        {
          "internalType": "address",
          "name": "didAddress",
          "type": "address"
        }
      ],
      "name": "deactivate",
      "outputs": [],
      "stateMutability": "nonpayable",
      "type": "function"
    },
    {
      "inputs": [
        {
          "internalType": "address",
          "name": "didAddress",
          "type": "address"
        }
      ],
      "name": "isDeactivated",
      "outputs": [
        {
          "internalType": "bool",
          "name": "",
          "type": "bool"
        }
      ],
      "stateMutability": "view",
      "type": "function",
      "constant": true
    }
  ],
  "bytecode": "0x608060405234801561001057600080fd5b50610a30806100206000396000f3fe608060405234801561001057600080fd5b50600436106100575760003560e01c80633ea053eb1461005c5780635b8a59e31461007857806363636037146100a8578063a0d721b6146100c4578063a8400f82146100f4575b600080fd5b61007660048036038101906100719190610567565b610124565b005b610092600480360381019061008d9190610567565b6101ec565b60405161009f9190610781565b60405180910390f35b6100c260048036038101906100bd9190610590565b6102bc565b005b6100de60048036038101906100d99190610567565b6103d1565b6040516100eb9190610766565b60405180910390f35b61010e60048036038101906101099190610567565b610427565b60405161011b9190610766565b60405180910390f35b8073ffffffffffffffffffffffffffffffffffffffff163373ffffffffffffffffffffffffffffffffffffffff1614610192576040517f08c379a0000000000000000000000000000000000000000000000000000000008152600401610189906107df565b60405180910390fd5b60018060008373ffffffffffffffffffffffffffffffffffffffff1673ffffffffffffffffffffffffffffffffffffffff16815260200190815260200160002060006101000a81548160ff02191690831515021790555050565b60606000808373ffffffffffffffffffffffffffffffffffffffff1673ffffffffffffffffffffffffffffffffffffffff168152602001908152602001600020805461023790610942565b80601f016020809104026020016040519081016040528092919081815260200182805461026390610942565b80156102b05780601f10610285576101008083540402835291602001916102b0565b820191906000526020600020905b81548152906001019060200180831161029357829003601f168201915b50505050509050919050565b8173ffffffffffffffffffffffffffffffffffffffff163373ffffffffffffffffffffffffffffffffffffffff161461032a576040517f08c379a0000000000000000000000000000000000000000000000000000000008152600401610321906107ff565b60405180910390fd5b806000808473ffffffffffffffffffffffffffffffffffffffff1673ffffffffffffffffffffffffffffffffffffffff168152602001908152602001600020908051906020019061037c929190610447565b508173ffffffffffffffffffffffffffffffffffffffff167f3c245a8c1b6b130ac5da86703bf855a1d9657013c1d88239123bbfb25f5252e382426040516103c59291906107a3565b60405180910390a25050565b6000600160008373ffffffffffffffffffffffffffffffffffffffff1673ffffffffffffffffffffffffffffffffffffffff16815260200190815260200160002060009054906101000a900460ff169050919050565b60016020528060005260406000206000915054906101000a900460ff1681565b82805461045390610942565b90600052602060002090601f01602090048101928261047557600085556104bc565b82601f1061048e57805160ff19168380011785556104bc565b828001600101855582156104bc579182015b828111156104bb5782518255916020019190600101906104a0565b5b5090506104c991906104cd565b5090565b5b808211156104e65760008160009055506001016104ce565b5090565b60006104fd6104f884610850565b61081f565b90508281526020810184848401111561051557600080fd5b610520848285610900565b509392505050565b600081359050610537816109e3565b92915050565b600082601f83011261054e57600080fd5b813561055e8482602086016104ea565b91505092915050565b60006020828403121561057957600080fd5b600061058784828501610528565b91505092915050565b600080604083850312156105a357600080fd5b60006105b185828601610528565b925050602083013567ffffffffffffffff8111156105ce57600080fd5b6105da8582860161053d565b9150509250929050565b6105ed816108ca565b82525050565b60006105fe82610880565b6106088185610896565b935061061881856020860161090f565b610621816109d2565b840191505092915050565b60006106378261088b565b61064181856108a7565b935061065181856020860161090f565b61065a816109d2565b840191505092915050565b7f444944446f63756d656e74000000000000000000000000000000000000000000815250565b60006106986029836108a7565b91507f4f6e6c792074686520444944206f776e65722063616e2064656163746976617460008301527f65207468652044494400000000000000000000000000000000000000000000006020830152604082019050919050565b60006106fe6025836108a7565b91507f4e6f7420617574686f72697a656420746f207570646174652044494420646f6360008301527f756d656e740000000000000000000000000000000000000000000000000000006020830152604082019050919050565b610760816108f6565b82525050565b600060208201905061077b60008301846105e4565b92915050565b6000602082019050818103600083015261079b818461062c565b905092915050565b60006060820190506107b760008301610665565b81810360208301526107c981856105f3565b90506107d86040830184610757565b9392505050565b600060208201905081810360008301526107f88161068b565b9050919050565b60006020820190508181036000830152610818816106f1565b9050919050565b6000604051905081810181811067ffffffffffffffff82111715610846576108456109a3565b5b8060405250919050565b600067ffffffffffffffff82111561086b5761086a6109a3565b5b601f19601f8301169050602081019050919050565b600081519050919050565b600081519050919050565b600082825260208201905092915050565b600082825260208201905092915050565b60006108c3826108d6565b9050919050565b60008115159050919050565b600073ffffffffffffffffffffffffffffffffffffffff82169050919050565b6000819050919050565b82818337600083830152505050565b60005b8381101561092d578082015181840152602081019050610912565b8381111561093c576000848401525b50505050565b6000600282049050600182168061095a57607f821691505b6020821081141561096e5761096d610974565b5b50919050565b7f4e487b7100000000000000000000000000000000000000000000000000000000600052602260045260246000fd5b7f4e487b7100000000000000000000000000000000000000000000000000000000600052604160045260246000fd5b6000601f19601f8301169050919050565b6109ec816108b8565b81146109f757600080fd5b5056fea26469706673582212201b0fcf97810f8e2e9f594c1d10d4fcc40943a2bcf9f4bc5197d4890997d324f464736f6c63430008000033",
  "immutableReferences": {},
  "source": "// SPDX-License-Identifier: GPL-3.0\npragma solidity ^0.8.0;\n\ncontract KlaytnDIDRegistry {\n    mapping(address => string) private didDocuments;\n\t\tmapping(address => bool) public deactivated;\n\n    event DIDAttributeChanged(\n        address indexed identity,\n        bytes32 name,\n        bytes value,\n        uint256 updatedAt\n    );\n\n    function getDIDDocument(address identity)\n        public\n        view\n        returns (string memory)\n    {\n        return didDocuments[identity];\n    }\n\n    function setDIDDocument(address identity, string memory didDocument)\n        public\n    {\n        require(msg.sender == identity, \"Not authorized to update DID document\");\n        didDocuments[identity] = didDocument;\n        emit DIDAttributeChanged(identity, \"DIDDocument\", bytes(didDocument), block.timestamp);\n    }\n\n\t\tfunction deactivate(address didAddress) public {\n        require(msg.sender == didAddress, \"Only the DID owner can deactivate the DID\");\n        deactivated[didAddress] = true;\n    }\n\n    function isDeactivated(address didAddress) public view returns (bool) {\n        return deactivated[didAddress];\n    }\n}\n",
  "sourcePath": "/Users/chayeonghun/did-project/klaytn-did-registry/contracts/KlaytnDIDRegistry.sol",
  "compiler": {
    "name": "solc",
    "version": "0.8.0+commit.c7dfd78e.Emscripten.clang"
  },
  "schemaVersion": "3.4.13",
  "updatedAt": "2023-04-17T06:58:16.950Z",
  "networkType": "ethereum",
  "devdoc": {
    "kind": "dev",
    "methods": {},
    "version": 1
  },
  "userdoc": {
    "kind": "user",
    "methods": {},
    "version": 1
  }
}